{"abi":[{"type":"constructor","inputs":[{"name":"deployedFallbackCode","type":"bytes","internalType":"bytes"}],"stateMutability":"nonpayable"},{"type":"fallback","stateMutability":"nonpayable"},{"type":"function","name":"fallbackImpl","inputs":[],"outputs":[{"name":"","type":"address","internalType":"address"}],"stateMutability":"view"},{"type":"function","name":"runStateUpdatesCall","inputs":[{"name":"types","type":"uint8[]","internalType":"enum StateUpdateType[]"},{"name":"args","type":"bytes[]","internalType":"bytes[]"}],"outputs":[],"stateMutability":"nonpayable"},{"type":"error","name":"DeployedFallbackCodeEmpty","inputs":[]},{"type":"error","name":"DeployedFallbackCodeTooLarge","inputs":[{"name":"deployedFallbackCodeSize","type":"uint256","internalType":"uint256"}]},{"type":"error","name":"FallbackFailedXYZ","inputs":[{"name":"sender","type":"address","internalType":"address"},{"name":"callData","type":"bytes","internalType":"bytes"},{"name":"returnData","type":"bytes","internalType":"bytes"}]},{"type":"error","name":"InvalidArguments","inputs":[]},{"type":"error","name":"RevertingContext","inputs":[{"name":"index","type":"uint256","internalType":"uint256"},{"name":"target","type":"address","internalType":"address"},{"name":"revertData","type":"bytes","internalType":"bytes"},{"name":"callargs","type":"bytes","internalType":"bytes"}]}],"bytecode":{"object":"0x60a060405234801561000f575f5ffd5b50604051611430380380611430833981810160405281019061003191906102f8565b5f815190505f811161006f576040517ffdae0ee300000000000000000000000000000000000000000000000000000000815260040160405180910390fd5b62010000811081906100b7576040517fd21101290000000000000000000000000000000000000000000000000000000081526004016100ae9190610357565b60405180910390fd5b505f8160f01b90505f606160f81b82606060f81b600c60f81b605f60f81b603960f81b606160f81b88605f60f81b60f360f81b8d6040516020016101059b9a9998979695949392919061044a565b60405160208183030381529060405290505f5f6040518060400160405280601281526020017f4352454154452063616c6c206661696c6564000000000000000000000000000081525090505f815190508351602085015ff092508261016b578060208301fd5b8273ffffffffffffffffffffffffffffffffffffffff1660808173ffffffffffffffffffffffffffffffffffffffff16815250505050505050505061050a565b5f604051905090565b5f5ffd5b5f5ffd5b5f5ffd5b5f5ffd5b5f601f19601f8301169050919050565b7f4e487b71000000000000000000000000000000000000000000000000000000005f52604160045260245ffd5b61020a826101c4565b810181811067ffffffffffffffff82111715610229576102286101d4565b5b80604052505050565b5f61023b6101ab565b90506102478282610201565b919050565b5f67ffffffffffffffff821115610266576102656101d4565b5b61026f826101c4565b9050602081019050919050565b8281835e5f83830152505050565b5f61029c6102978461024c565b610232565b9050828152602081018484840111156102b8576102b76101c0565b5b6102c384828561027c565b509392505050565b5f82601f8301126102df576102de6101bc565b5b81516102ef84826020860161028a565b91505092915050565b5f6020828403121561030d5761030c6101b4565b5b5f82015167ffffffffffffffff81111561032a576103296101b8565b5b610336848285016102cb565b91505092915050565b5f819050919050565b6103518161033f565b82525050565b5f60208201905061036a5f830184610348565b92915050565b5f7fff0000000000000000000000000000000000000000000000000000000000000082169050919050565b5f819050919050565b6103b56103b082610370565b61039b565b82525050565b5f7fffff00000000000000000000000000000000000000000000000000000000000082169050919050565b5f819050919050565b6104006103fb826103bb565b6103e6565b82525050565b5f81519050919050565b5f81905092915050565b5f61042482610406565b61042e8185610410565b935061043e81856020860161027c565b80840191505092915050565b5f610455828e6103a4565b600182019150610465828d6103ef565b600282019150610475828c6103a4565b600182019150610485828b6103a4565b600182019150610495828a6103a4565b6001820191506104a582896103a4565b6001820191506104b582886103a4565b6001820191506104c582876103ef565b6002820191506104d582866103a4565b6001820191506104e582856103a4565b6001820191506104f5828461041a565b91508190509c9b505050505050505050505050565b608051610f086105285f395f8181604101526101640152610f085ff3fe608060405234801561000f575f5ffd5b5060043610610038575f3560e01c80631089721d146101285780637a888dbc1461014657610039565b5b5f3660605f5f7f000000000000000000000000000000000000000000000000000000000000000073ffffffffffffffffffffffffffffffffffffffff168585604051610086929190610584565b5f60405180830381855af49150503d805f81146100be576040519150601f19603f3d011682016040523d82523d5f602084013e6100c3565b606091505b5091509150813386868490919293610114576040517fa5e79e7200000000000000000000000000000000000000000000000000000000815260040161010b9493929190610677565b60405180910390fd5b505050508092505050915050805190602001f35b610130610162565b60405161013d91906106bc565b60405180910390f35b610160600480360381019061015b91906109c9565b610186565b005b7f000000000000000000000000000000000000000000000000000000000000000081565b6101908282610194565b5050565b80518251146101cf576040517f5f6f132c00000000000000000000000000000000000000000000000000000000815260040160405180910390fd5b5f5f90505b8251811015610543575f8382815181106101f1576101f0610a3f565b5b602002602001015190505f83838151811061020f5761020e610a3f565b5b602002602001015190505f600681111561022c5761022b610a6c565b5b82600681111561023f5761023e610a6c565b5b03610268575f5f8280602001905181019061025a9190610acc565b915091508082555050610534565b6001600681111561027c5761027b610a6c565b5b82600681111561028f5761028e610a6c565b5b03610371575f5f5f838060200190518101906102ab9190610be6565b9250925092505f5f5a90505f5f845160208601878986f1915081610367575f3d90505f8167ffffffffffffffff8111156102e8576102e76106ea565b5b6040519080825280601f01601f19166020018201604052801561031a5781602001600182028036833780820191505090505b509050815f602083013e898782876040517f493f09c400000000000000000000000000000000000000000000000000000000815260040161035e9493929190610c61565b60405180910390fd5b5050505050610533565b6002600681111561038557610384610a6c565b5b82600681111561039857610397610a6c565b5b036103c1575f818060200190518101906103b29190610cb2565b9050805160208201a050610532565b600360068111156103d5576103d4610a6c565b5b8260068111156103e8576103e7610a6c565b5b03610416575f5f828060200190518101906104039190610cf9565b9150915080825160208401a15050610531565b6004600681111561042a57610429610a6c565b5b82600681111561043d5761043c610a6c565b5b03610470575f5f5f838060200190518101906104599190610d53565b9250925092508082845160208601a2505050610530565b6005600681111561048457610483610a6c565b5b82600681111561049757610496610a6c565b5b036104cf575f5f5f5f848060200190518101906104b49190610dbf565b9350935093509350808284865160208801a35050505061052f565b6006808111156104e2576104e1610a6c565b5b8260068111156104f5576104f4610a6c565b5b0361052e575f5f5f5f5f858060200190518101906105139190610e3f565b9450945094509450945080828486885160208a01a450505050505b5b5b5b5b5b5b505080806001019150506101d4565b505050565b5f81905092915050565b828183375f83830152505050565b5f61056b8385610548565b9350610578838584610552565b82840190509392505050565b5f610590828486610560565b91508190509392505050565b5f73ffffffffffffffffffffffffffffffffffffffff82169050919050565b5f6105c58261059c565b9050919050565b6105d5816105bb565b82525050565b5f82825260208201905092915050565b5f601f19601f8301169050919050565b5f61060683856105db565b9350610613838584610552565b61061c836105eb565b840190509392505050565b5f81519050919050565b8281835e5f83830152505050565b5f61064982610627565b61065381856105db565b9350610663818560208601610631565b61066c816105eb565b840191505092915050565b5f60608201905061068a5f8301876105cc565b818103602083015261069d8185876105fb565b905081810360408301526106b1818461063f565b905095945050505050565b5f6020820190506106cf5f8301846105cc565b92915050565b5f604051905090565b5f5ffd5b5f5ffd5b5f5ffd5b7f4e487b71000000000000000000000000000000000000000000000000000000005f52604160045260245ffd5b610720826105eb565b810181811067ffffffffffffffff8211171561073f5761073e6106ea565b5b80604052505050565b5f6107516106d5565b905061075d8282610717565b919050565b5f67ffffffffffffffff82111561077c5761077b6106ea565b5b602082029050602081019050919050565b5f5ffd5b6007811061079d575f5ffd5b50565b5f813590506107ae81610791565b92915050565b5f6107c66107c184610762565b610748565b905080838252602082019050602084028301858111156107e9576107e861078d565b5b835b8181101561081257806107fe88826107a0565b8452602084019350506020810190506107eb565b5050509392505050565b5f82601f8301126108305761082f6106e6565b5b81356108408482602086016107b4565b91505092915050565b5f67ffffffffffffffff821115610863576108626106ea565b5b602082029050602081019050919050565b5f5ffd5b5f67ffffffffffffffff821115610892576108916106ea565b5b61089b826105eb565b9050602081019050919050565b5f6108ba6108b584610878565b610748565b9050828152602081018484840111156108d6576108d5610874565b5b6108e1848285610552565b509392505050565b5f82601f8301126108fd576108fc6106e6565b5b813561090d8482602086016108a8565b91505092915050565b5f61092861092384610849565b610748565b9050808382526020820190506020840283018581111561094b5761094a61078d565b5b835b8181101561099257803567ffffffffffffffff8111156109705761096f6106e6565b5b80860161097d89826108e9565b8552602085019450505060208101905061094d565b5050509392505050565b5f82601f8301126109b0576109af6106e6565b5b81356109c0848260208601610916565b91505092915050565b5f5f604083850312156109df576109de6106de565b5b5f83013567ffffffffffffffff8111156109fc576109fb6106e2565b5b610a088582860161081c565b925050602083013567ffffffffffffffff811115610a2957610a286106e2565b5b610a358582860161099c565b9150509250929050565b7f4e487b71000000000000000000000000000000000000000000000000000000005f52603260045260245ffd5b7f4e487b71000000000000000000000000000000000000000000000000000000005f52602160045260245ffd5b5f819050919050565b610aab81610a99565b8114610ab5575f5ffd5b50565b5f81519050610ac681610aa2565b92915050565b5f5f60408385031215610ae257610ae16106de565b5b5f610aef85828601610ab8565b9250506020610b0085828601610ab8565b9150509250929050565b5f610b148261059c565b9050919050565b610b2481610b0a565b8114610b2e575f5ffd5b50565b5f81519050610b3f81610b1b565b92915050565b5f819050919050565b610b5781610b45565b8114610b61575f5ffd5b50565b5f81519050610b7281610b4e565b92915050565b5f610b8a610b8584610878565b610748565b905082815260208101848484011115610ba657610ba5610874565b5b610bb1848285610631565b509392505050565b5f82601f830112610bcd57610bcc6106e6565b5b8151610bdd848260208601610b78565b91505092915050565b5f5f5f60608486031215610bfd57610bfc6106de565b5b5f610c0a86828701610b31565b9350506020610c1b86828701610b64565b925050604084015167ffffffffffffffff811115610c3c57610c3b6106e2565b5b610c4886828701610bb9565b9150509250925092565b610c5b81610b45565b82525050565b5f608082019050610c745f830187610c52565b610c8160208301866105cc565b8181036040830152610c93818561063f565b90508181036060830152610ca7818461063f565b905095945050505050565b5f60208284031215610cc757610cc66106de565b5b5f82015167ffffffffffffffff811115610ce457610ce36106e2565b5b610cf084828501610bb9565b91505092915050565b5f5f60408385031215610d0f57610d0e6106de565b5b5f83015167ffffffffffffffff811115610d2c57610d2b6106e2565b5b610d3885828601610bb9565b9250506020610d4985828601610ab8565b9150509250929050565b5f5f5f60608486031215610d6a57610d696106de565b5b5f84015167ffffffffffffffff811115610d8757610d866106e2565b5b610d9386828701610bb9565b9350506020610da486828701610ab8565b9250506040610db586828701610ab8565b9150509250925092565b5f5f5f5f60808587031215610dd757610dd66106de565b5b5f85015167ffffffffffffffff811115610df457610df36106e2565b5b610e0087828801610bb9565b9450506020610e1187828801610ab8565b9350506040610e2287828801610ab8565b9250506060610e3387828801610ab8565b91505092959194509250565b5f5f5f5f5f60a08688031215610e5857610e576106de565b5b5f86015167ffffffffffffffff811115610e7557610e746106e2565b5b610e8188828901610bb9565b9550506020610e9288828901610ab8565b9450506040610ea388828901610ab8565b9350506060610eb488828901610ab8565b9250506080610ec588828901610ab8565b915050929550929590935056fea2646970667358221220fb95b2f4a59e3861e759e8c0201d6dd2ae69984719d9b6eb6bb9cd9861c6d90664736f6c634300081e0033","linkReferences":{}},"methodIdentifiers":{"fallbackImpl()":"1089721d","runStateUpdatesCall(uint8[],bytes[])":"7a888dbc"},"id":20}