{"abi":[{"type":"function","name":"coolSlots","inputs":[{"name":"slots","type":"bytes32[]","internalType":"bytes32[]"}],"outputs":[],"stateMutability":"nonpayable"},{"type":"function","name":"runStateUpdatesCall","inputs":[{"name":"types","type":"uint8[]","internalType":"enum StateUpdateType[]"},{"name":"args","type":"bytes[]","internalType":"bytes[]"}],"outputs":[],"stateMutability":"nonpayable"},{"type":"function","name":"warmSlots","inputs":[{"name":"slots","type":"bytes32[]","internalType":"bytes32[]"}],"outputs":[],"stateMutability":"nonpayable"},{"type":"error","name":"InvalidArguments","inputs":[]},{"type":"error","name":"RevertingContext","inputs":[{"name":"target","type":"address","internalType":"address"},{"name":"revertData","type":"bytes","internalType":"bytes"}]}],"bytecode":{"object":"0x6080604052348015600e575f5ffd5b50610e3e8061001c5f395ff3fe608060405234801561000f575f5ffd5b506004361061003f575f3560e01c80637a888dbc14610043578063c9f379751461005f578063d0bf07bf1461007b575b5f5ffd5b61005d600480360381019061005891906107ee565b610097565b005b610079600480360381019061007491906108bd565b6100a5565b005b610095600480360381019061009091906108bd565b6100e9565b005b6100a1828261012c565b5050565b5f5f90505b828290508110156100e4575f8383838181106100c9576100c8610908565b5b905060200201359050600181555080806001019150506100aa565b505050565b5f5f90505b82829050811015610127575f83838381811061010d5761010c610908565b5b9050602002013590505f81555080806001019150506100ee565b505050565b8051825114610167576040517f5f6f132c00000000000000000000000000000000000000000000000000000000815260040160405180910390fd5b5f5f90505b82518110156104d7575f83828151811061018957610188610908565b5b602002602001015190505f8383815181106101a7576101a6610908565b5b602002602001015190505f60068111156101c4576101c3610935565b5b8260068111156101d7576101d6610935565b5b03610200575f5f828060200190518101906101f29190610995565b9150915080825550506104c8565b6001600681111561021457610213610935565b5b82600681111561022757610226610935565b5b03610305575f5f5f838060200190518101906102439190610adc565b9250925092505f5f5a90505f5f845160208601878986f19150816102fb575f3d90505f8167ffffffffffffffff8111156102805761027f610501565b5b6040519080825280601f01601f1916602001820160405280156102b25781602001600182028036833780820191505090505b509050815f602083013e86816040517faa86ecee0000000000000000000000000000000000000000000000000000000081526004016102f2929190610bba565b60405180910390fd5b50505050506104c7565b6002600681111561031957610318610935565b5b82600681111561032c5761032b610935565b5b03610355575f818060200190518101906103469190610be8565b9050805160208201a0506104c6565b6003600681111561036957610368610935565b5b82600681111561037c5761037b610935565b5b036103aa575f5f828060200190518101906103979190610c2f565b9150915080825160208401a150506104c5565b600460068111156103be576103bd610935565b5b8260068111156103d1576103d0610935565b5b03610404575f5f5f838060200190518101906103ed9190610c89565b9250925092508082845160208601a25050506104c4565b6005600681111561041857610417610935565b5b82600681111561042b5761042a610935565b5b03610463575f5f5f5f848060200190518101906104489190610cf5565b9350935093509350808284865160208801a3505050506104c3565b60068081111561047657610475610935565b5b82600681111561048957610488610935565b5b036104c2575f5f5f5f5f858060200190518101906104a79190610d75565b9450945094509450945080828486885160208a01a450505050505b5b5b5b5b5b5b5050808060010191505061016c565b505050565b5f604051905090565b5f5ffd5b5f5ffd5b5f5ffd5b5f601f19601f8301169050919050565b7f4e487b71000000000000000000000000000000000000000000000000000000005f52604160045260245ffd5b610537826104f1565b810181811067ffffffffffffffff8211171561055657610555610501565b5b80604052505050565b5f6105686104dc565b9050610574828261052e565b919050565b5f67ffffffffffffffff82111561059357610592610501565b5b602082029050602081019050919050565b5f5ffd5b600781106105b4575f5ffd5b50565b5f813590506105c5816105a8565b92915050565b5f6105dd6105d884610579565b61055f565b90508083825260208201905060208402830185811115610600576105ff6105a4565b5b835b81811015610629578061061588826105b7565b845260208401935050602081019050610602565b5050509392505050565b5f82601f830112610647576106466104ed565b5b81356106578482602086016105cb565b91505092915050565b5f67ffffffffffffffff82111561067a57610679610501565b5b602082029050602081019050919050565b5f5ffd5b5f67ffffffffffffffff8211156106a9576106a8610501565b5b6106b2826104f1565b9050602081019050919050565b828183375f83830152505050565b5f6106df6106da8461068f565b61055f565b9050828152602081018484840111156106fb576106fa61068b565b5b6107068482856106bf565b509392505050565b5f82601f830112610722576107216104ed565b5b81356107328482602086016106cd565b91505092915050565b5f61074d61074884610660565b61055f565b905080838252602082019050602084028301858111156107705761076f6105a4565b5b835b818110156107b757803567ffffffffffffffff811115610795576107946104ed565b5b8086016107a2898261070e565b85526020850194505050602081019050610772565b5050509392505050565b5f82601f8301126107d5576107d46104ed565b5b81356107e584826020860161073b565b91505092915050565b5f5f60408385031215610804576108036104e5565b5b5f83013567ffffffffffffffff811115610821576108206104e9565b5b61082d85828601610633565b925050602083013567ffffffffffffffff81111561084e5761084d6104e9565b5b61085a858286016107c1565b9150509250929050565b5f5ffd5b5f5f83601f84011261087d5761087c6104ed565b5b8235905067ffffffffffffffff81111561089a57610899610864565b5b6020830191508360208202830111156108b6576108b56105a4565b5b9250929050565b5f5f602083850312156108d3576108d26104e5565b5b5f83013567ffffffffffffffff8111156108f0576108ef6104e9565b5b6108fc85828601610868565b92509250509250929050565b7f4e487b71000000000000000000000000000000000000000000000000000000005f52603260045260245ffd5b7f4e487b71000000000000000000000000000000000000000000000000000000005f52602160045260245ffd5b5f819050919050565b61097481610962565b811461097e575f5ffd5b50565b5f8151905061098f8161096b565b92915050565b5f5f604083850312156109ab576109aa6104e5565b5b5f6109b885828601610981565b92505060206109c985828601610981565b9150509250929050565b5f73ffffffffffffffffffffffffffffffffffffffff82169050919050565b5f6109fc826109d3565b9050919050565b610a0c816109f2565b8114610a16575f5ffd5b50565b5f81519050610a2781610a03565b92915050565b5f819050919050565b610a3f81610a2d565b8114610a49575f5ffd5b50565b5f81519050610a5a81610a36565b92915050565b8281835e5f83830152505050565b5f610a80610a7b8461068f565b61055f565b905082815260208101848484011115610a9c57610a9b61068b565b5b610aa7848285610a60565b509392505050565b5f82601f830112610ac357610ac26104ed565b5b8151610ad3848260208601610a6e565b91505092915050565b5f5f5f60608486031215610af357610af26104e5565b5b5f610b0086828701610a19565b9350506020610b1186828701610a4c565b925050604084015167ffffffffffffffff811115610b3257610b316104e9565b5b610b3e86828701610aaf565b9150509250925092565b5f610b52826109d3565b9050919050565b610b6281610b48565b82525050565b5f81519050919050565b5f82825260208201905092915050565b5f610b8c82610b68565b610b968185610b72565b9350610ba6818560208601610a60565b610baf816104f1565b840191505092915050565b5f604082019050610bcd5f830185610b59565b8181036020830152610bdf8184610b82565b90509392505050565b5f60208284031215610bfd57610bfc6104e5565b5b5f82015167ffffffffffffffff811115610c1a57610c196104e9565b5b610c2684828501610aaf565b91505092915050565b5f5f60408385031215610c4557610c446104e5565b5b5f83015167ffffffffffffffff811115610c6257610c616104e9565b5b610c6e85828601610aaf565b9250506020610c7f85828601610981565b9150509250929050565b5f5f5f60608486031215610ca057610c9f6104e5565b5b5f84015167ffffffffffffffff811115610cbd57610cbc6104e9565b5b610cc986828701610aaf565b9350506020610cda86828701610981565b9250506040610ceb86828701610981565b9150509250925092565b5f5f5f5f60808587031215610d0d57610d0c6104e5565b5b5f85015167ffffffffffffffff811115610d2a57610d296104e9565b5b610d3687828801610aaf565b9450506020610d4787828801610981565b9350506040610d5887828801610981565b9250506060610d6987828801610981565b91505092959194509250565b5f5f5f5f5f60a08688031215610d8e57610d8d6104e5565b5b5f86015167ffffffffffffffff811115610dab57610daa6104e9565b5b610db788828901610aaf565b9550506020610dc888828901610981565b9450506040610dd988828901610981565b9350506060610dea88828901610981565b9250506080610dfb88828901610981565b915050929550929590935056fea2646970667358221220cfa565417d9a2902c1a2cf2d1877b2c83ba658d2b3f574ecea649ea83e8516f164736f6c634300081e0033","linkReferences":{}},"methodIdentifiers":{"coolSlots(bytes32[])":"d0bf07bf","runStateUpdatesCall(uint8[],bytes[])":"7a888dbc","warmSlots(bytes32[])":"c9f37975"},"id":1}